{
  "contractName": "InfiniteTower",
  "abi": [
    {
      "anonymous": false,
      "inputs": [
        {
          "indexed": false,
          "internalType": "uint256",
          "name": "floor",
          "type": "uint256"
        },
        {
          "indexed": false,
          "internalType": "string",
          "name": "ownerName",
          "type": "string"
        },
        {
          "indexed": false,
          "internalType": "string",
          "name": "message",
          "type": "string"
        },
        {
          "indexed": false,
          "internalType": "string",
          "name": "link",
          "type": "string"
        },
        {
          "indexed": false,
          "internalType": "uint256",
          "name": "color",
          "type": "uint256"
        },
        {
          "indexed": false,
          "internalType": "uint256",
          "name": "windowsTint",
          "type": "uint256"
        }
      ],
      "name": "NewFloor",
      "type": "event"
    },
    {
      "inputs": [
        {
          "internalType": "uint256",
          "name": "",
          "type": "uint256"
        }
      ],
      "name": "floors",
      "outputs": [
        {
          "internalType": "string",
          "name": "ownerName",
          "type": "string"
        },
        {
          "internalType": "string",
          "name": "message",
          "type": "string"
        },
        {
          "internalType": "string",
          "name": "link",
          "type": "string"
        },
        {
          "internalType": "uint256",
          "name": "color",
          "type": "uint256"
        },
        {
          "internalType": "uint256",
          "name": "windowsTint",
          "type": "uint256"
        }
      ],
      "stateMutability": "view",
      "type": "function",
      "constant": true
    },
    {
      "inputs": [],
      "name": "numberOfFloors",
      "outputs": [
        {
          "internalType": "uint256",
          "name": "",
          "type": "uint256"
        }
      ],
      "stateMutability": "view",
      "type": "function",
      "constant": true
    },
    {
      "inputs": [
        {
          "internalType": "string",
          "name": "_ownerName",
          "type": "string"
        },
        {
          "internalType": "string",
          "name": "_message",
          "type": "string"
        },
        {
          "internalType": "string",
          "name": "_link",
          "type": "string"
        },
        {
          "internalType": "uint256",
          "name": "_color",
          "type": "uint256"
        },
        {
          "internalType": "uint256",
          "name": "_windowsTint",
          "type": "uint256"
        }
      ],
      "name": "createFloor",
      "outputs": [],
      "stateMutability": "nonpayable",
      "type": "function"
    }
  ],
  "bytecode": "0x608060405234801561001057600080fd5b50610b42806100206000396000f3fe608060405234801561001057600080fd5b50600436106100415760003560e01c80634522f7281461004657806347f394711461006257806388f67df414610096575b600080fd5b610060600480360381019061005b9190610534565b6100b4565b005b61007c60048036038101906100779190610603565b6101c0565b60405161008d9594939291906106be565b60405180910390f35b61009e61039e565b6040516100ab9190610726565b60405180910390f35b60006040518060a00160405280878152602001868152602001858152602001848152602001838152509080600181540180825580915050600190039060005260206000209060050201600090919091909150600082015181600001908161011b919061094d565b506020820151816001019081610131919061094d565b506040820151816002019081610147919061094d565b50606082015181600301556080820151816004015550507fe770b7c5c573b8a944e9a5a65e63588751259254aff8f247d6ea9bbe5766ee7c600154868686868660405161019996959493929190610a1f565b60405180910390a1600160008154809291906101b490610ac4565b91905055505050505050565b600081815481106101d057600080fd5b90600052602060002090600502016000915090508060000180546101f390610770565b80601f016020809104026020016040519081016040528092919081815260200182805461021f90610770565b801561026c5780601f106102415761010080835404028352916020019161026c565b820191906000526020600020905b81548152906001019060200180831161024f57829003601f168201915b50505050509080600101805461028190610770565b80601f01602080910402602001604051908101604052809291908181526020018280546102ad90610770565b80156102fa5780601f106102cf576101008083540402835291602001916102fa565b820191906000526020600020905b8154815290600101906020018083116102dd57829003601f168201915b50505050509080600201805461030f90610770565b80601f016020809104026020016040519081016040528092919081815260200182805461033b90610770565b80156103885780601f1061035d57610100808354040283529160200191610388565b820191906000526020600020905b81548152906001019060200180831161036b57829003601f168201915b5050505050908060030154908060040154905085565b60015481565b6000604051905090565b600080fd5b600080fd5b600080fd5b600080fd5b6000601f19601f8301169050919050565b7f4e487b7100000000000000000000000000000000000000000000000000000000600052604160045260246000fd5b61040b826103c2565b810181811067ffffffffffffffff8211171561042a576104296103d3565b5b80604052505050565b600061043d6103a4565b90506104498282610402565b919050565b600067ffffffffffffffff821115610469576104686103d3565b5b610472826103c2565b9050602081019050919050565b82818337600083830152505050565b60006104a161049c8461044e565b610433565b9050828152602081018484840111156104bd576104bc6103bd565b5b6104c884828561047f565b509392505050565b600082601f8301126104e5576104e46103b8565b5b81356104f584826020860161048e565b91505092915050565b6000819050919050565b610511816104fe565b811461051c57600080fd5b50565b60008135905061052e81610508565b92915050565b600080600080600060a086880312156105505761054f6103ae565b5b600086013567ffffffffffffffff81111561056e5761056d6103b3565b5b61057a888289016104d0565b955050602086013567ffffffffffffffff81111561059b5761059a6103b3565b5b6105a7888289016104d0565b945050604086013567ffffffffffffffff8111156105c8576105c76103b3565b5b6105d4888289016104d0565b93505060606105e58882890161051f565b92505060806105f68882890161051f565b9150509295509295909350565b600060208284031215610619576106186103ae565b5b60006106278482850161051f565b91505092915050565b600081519050919050565b600082825260208201905092915050565b60005b8381101561066a57808201518184015260208101905061064f565b60008484015250505050565b600061068182610630565b61068b818561063b565b935061069b81856020860161064c565b6106a4816103c2565b840191505092915050565b6106b8816104fe565b82525050565b600060a08201905081810360008301526106d88188610676565b905081810360208301526106ec8187610676565b905081810360408301526107008186610676565b905061070f60608301856106af565b61071c60808301846106af565b9695505050505050565b600060208201905061073b60008301846106af565b92915050565b7f4e487b7100000000000000000000000000000000000000000000000000000000600052602260045260246000fd5b6000600282049050600182168061078857607f821691505b60208210810361079b5761079a610741565b5b50919050565b60008190508160005260206000209050919050565b60006020601f8301049050919050565b600082821b905092915050565b6000600883026108037fffffffffffffffffffffffffffffffffffffffffffffffffffffffffffffffff826107c6565b61080d86836107c6565b95508019841693508086168417925050509392505050565b6000819050919050565b600061084a610845610840846104fe565b610825565b6104fe565b9050919050565b6000819050919050565b6108648361082f565b61087861087082610851565b8484546107d3565b825550505050565b600090565b61088d610880565b61089881848461085b565b505050565b5b818110156108bc576108b1600082610885565b60018101905061089e565b5050565b601f821115610901576108d2816107a1565b6108db846107b6565b810160208510156108ea578190505b6108fe6108f6856107b6565b83018261089d565b50505b505050565b600082821c905092915050565b600061092460001984600802610906565b1980831691505092915050565b600061093d8383610913565b9150826002028217905092915050565b61095682610630565b67ffffffffffffffff81111561096f5761096e6103d3565b5b6109798254610770565b6109848282856108c0565b600060209050601f8311600181146109b757600084156109a5578287015190505b6109af8582610931565b865550610a17565b601f1984166109c5866107a1565b60005b828110156109ed578489015182556001820191506020850194506020810190506109c8565b86831015610a0a5784890151610a06601f891682610913565b8355505b6001600288020188555050505b505050505050565b600060c082019050610a3460008301896106af565b8181036020830152610a468188610676565b90508181036040830152610a5a8187610676565b90508181036060830152610a6e8186610676565b9050610a7d60808301856106af565b610a8a60a08301846106af565b979650505050505050565b7f4e487b7100000000000000000000000000000000000000000000000000000000600052601160045260246000fd5b6000610acf826104fe565b91507fffffffffffffffffffffffffffffffffffffffffffffffffffffffffffffffff8203610b0157610b00610a95565b5b60018201905091905056fea26469706673582212201af1cb2fc7e7163eb6bd58e8558deeebb3a4f450e7bda6c0e2fef01fcec6085364736f6c63430008110033",
  "immutableReferences": {},
  "source": "// SPDX-License-Identifier: UNLICENSED\npragma solidity >= 0.7.0 < 0.9.0;\n\ncontract InfiniteTower {\n    struct Floor {\n        string ownerName;\n        string message;\n        string link;\n        uint color;\n        uint windowsTint;\n    }\n    \n    event NewFloor(uint floor, string ownerName, string message, string link, uint color, uint windowsTint);\n\n    Floor[] public floors;\n    uint public numberOfFloors;\n\n    function createFloor(string memory _ownerName, string memory _message, string memory _link, uint _color, uint _windowsTint) public {\n        floors.push(Floor(_ownerName, _message, _link, _color, _windowsTint));\n        emit NewFloor(numberOfFloors, _ownerName, _message, _link, _color, _windowsTint);\n        numberOfFloors++;\n    }\n}",
  "sourcePath": "/Users/cheeterlee/repos/tower/smart_contract/contracts/InfiniteTowers.sol",
  "compiler": {
    "name": "solc",
    "version": "0.8.17+commit.8df45f5f.Emscripten.clang"
  },
  "schemaVersion": "3.4.11",
  "updatedAt": "2023-01-20T13:29:52.421Z",
  "networkType": "ethereum",
  "devdoc": {
    "kind": "dev",
    "methods": {},
    "version": 1
  },
  "userdoc": {
    "kind": "user",
    "methods": {},
    "version": 1
  }
}